{
  "contractName": "SimpleContract",
  "abi": [
    {
      "constant": false,
      "inputs": [
        {
          "name": "key",
          "type": "string"
        },
        {
          "name": "value",
          "type": "string"
        }
      ],
      "name": "setBasicData",
      "outputs": [],
      "payable": false,
      "stateMutability": "nonpayable",
      "type": "function"
    },
    {
      "constant": true,
      "inputs": [
        {
          "name": "arg",
          "type": "string"
        }
      ],
      "name": "getBasicData",
      "outputs": [
        {
          "name": "",
          "type": "string"
        }
      ],
      "payable": false,
      "stateMutability": "view",
      "type": "function"
    },
    {
      "constant": true,
      "inputs": [],
      "name": "getOwner",
      "outputs": [
        {
          "name": "",
          "type": "address"
        }
      ],
      "payable": false,
      "stateMutability": "view",
      "type": "function"
    },
    {
      "inputs": [],
      "payable": false,
      "stateMutability": "nonpayable",
      "type": "constructor"
    },
    {
      "anonymous": false,
      "inputs": [
        {
          "indexed": false,
          "name": "key",
          "type": "string"
        },
        {
          "indexed": false,
          "name": "value",
          "type": "string"
        }
      ],
      "name": "BasicDataEvent",
      "type": "event"
    }
  ],
  "bytecode": "0x6060604052341561000f57600080fd5b336000806101000a81548173ffffffffffffffffffffffffffffffffffffffff021916908373ffffffffffffffffffffffffffffffffffffffff1602179055506105d58061005e6000396000f300606060405260043610610057576000357c0100000000000000000000000000000000000000000000000000000000900463ffffffff168063206471d81461005c5780637614b3bf146100fc578063893d20e8146101d2575b600080fd5b341561006757600080fd5b6100fa600480803590602001908201803590602001908080601f0160208091040260200160405190810160405280939291908181526020018383808284378201915050505050509190803590602001908201803590602001908080601f01602080910402602001604051908101604052809392919081815260200183838082843782019150505050505091905050610227565b005b341561010757600080fd5b610157600480803590602001908201803590602001908080601f016020809104026020016040519081016040528093929190818152602001838380828437820191505050505050919050506103b4565b6040518080602001828103825283818151815260200191508051906020019080838360005b8381101561019757808201518184015260208101905061017c565b50505050905090810190601f1680156101c45780820380516001836020036101000a031916815260200191505b509250505060405180910390f35b34156101dd57600080fd5b6101e56104c7565b604051808273ffffffffffffffffffffffffffffffffffffffff1673ffffffffffffffffffffffffffffffffffffffff16815260200191505060405180910390f35b806001836040518082805190602001908083835b602083101515610260578051825260208201915060208101905060208303925061023b565b6001836020036101000a038019825116818451168082178552505050505050905001915050908152602001604051809103902090805190602001906102a69291906104f0565b507f95f413b0def6e68fa8044523fc7e1de7563ee0006de07e68cda4a7c924e4acfe8282604051808060200180602001838103835285818151815260200191508051906020019080838360005b8381101561030e5780820151818401526020810190506102f3565b50505050905090810190601f16801561033b5780820380516001836020036101000a031916815260200191505b50838103825284818151815260200191508051906020019080838360005b83811015610374578082015181840152602081019050610359565b50505050905090810190601f1680156103a15780820380516001836020036101000a031916815260200191505b5094505050505060405180910390a15050565b6103bc610570565b6001826040518082805190602001908083835b6020831015156103f457805182526020820191506020810190506020830392506103cf565b6001836020036101000a03801982511681845116808217855250505050505090500191505090815260200160405180910390208054600181600116156101000203166002900480601f0160208091040260200160405190810160405280929190818152602001828054600181600116156101000203166002900480156104bb5780601f10610490576101008083540402835291602001916104bb565b820191906000526020600020905b81548152906001019060200180831161049e57829003601f168201915b50505050509050919050565b60008060009054906101000a900473ffffffffffffffffffffffffffffffffffffffff16905090565b828054600181600116156101000203166002900490600052602060002090601f016020900481019282601f1061053157805160ff191683800117855561055f565b8280016001018555821561055f579182015b8281111561055e578251825591602001919060010190610543565b5b50905061056c9190610584565b5090565b602060405190810160405280600081525090565b6105a691905b808211156105a257600081600090555060010161058a565b5090565b905600a165627a7a723058204bb7fd0957654fd25e68e90d7bf630e184d6b42bb1e3e9913b465ac06af6b94f0029",
  "source": "pragma solidity ^0.4.4; \r\n/**\r\n* Простой контракт с конструктором и двумя внутренними переменными.\r\n* owner - устанавливается в конструкторе,\r\n* basic_data - маппа для работы с которой есть два метода на установку и чтение\r\n*/\r\ncontract SimpleContract {\r\n\taddress owner;\r\n\tmapping (string => string) basic_data;\r\n\t\r\n\t/**\r\n\t* Конструктор\r\n\t* msg - служебное слово, передает параметры, которые можно передать любому методу\r\n\t* Подробнее про msg\r\n\t* http://solidity.readthedocs.io/en/develop/units-and-global-variables.html#block-and-transaction-properties\r\n\t*/\r\n\tfunction SimpleContract() public{\r\n\t\towner = msg.sender;\r\n\t}\r\n\r\n\t/**\r\n\t* Событие срабатывает на прохождение транзакции \r\n\t* по записи данных в мапу\r\n\t*/\r\n\tevent BasicDataEvent(\r\n\t\tstring key,\r\n\t\tstring value\r\n\t);\r\n\r\n    function getOwner() public constant returns (address){\r\n        return owner;\r\n    }\r\n\r\n\tfunction getBasicData(string arg) public constant returns (string){\r\n\t\treturn basic_data[arg];\r\n\t}\r\n\r\n\t/**\r\n\t* По факту этот метод произведет транзакцию записи в блокчейн\r\n\t* BasicDataEvent - событие сработает не в момент вызова функции,\r\n\t* а в момент когда транзакция попадет в блок\r\n\t*/\r\n\tfunction setBasicData(string key, string value) public{\r\n\t\tbasic_data[key] = value;\r\n\t\tBasicDataEvent(key, value);\r\n\t}\r\n\r\n} ",
  "sourcePath": "D:\\depelop\\javaScript\\hackaton\\contract\\contracts\\SimpleContract.sol",
  "compiler": {
    "name": "solc",
    "version": "0.4.18+commit.9cf6e910.Emscripten.clang"
  },
  "schemaVersion": "1.0.1",
  "updatedAt": "2017-12-04T17:58:41.865Z"
}