{
  "contractName": "BusinessCard",
  "abi": [
    {
      "constant": false,
      "inputs": [
        {
          "name": "key",
          "type": "string"
        },
        {
          "name": "value",
          "type": "string"
        }
      ],
      "name": "setData",
      "outputs": [],
      "payable": false,
      "stateMutability": "nonpayable",
      "type": "function"
    },
    {
      "constant": true,
      "inputs": [
        {
          "name": "key",
          "type": "string"
        }
      ],
      "name": "getData",
      "outputs": [
        {
          "name": "",
          "type": "string"
        }
      ],
      "payable": false,
      "stateMutability": "view",
      "type": "function"
    },
    {
      "constant": false,
      "inputs": [
        {
          "name": "newOwner",
          "type": "address"
        }
      ],
      "name": "transferOwnership",
      "outputs": [],
      "payable": false,
      "stateMutability": "nonpayable",
      "type": "function"
    },
    {
      "inputs": [],
      "payable": false,
      "stateMutability": "nonpayable",
      "type": "constructor"
    }
  ],
  "bytecode": "0x6060604052341561000f57600080fd5b33600160006101000a81548173ffffffffffffffffffffffffffffffffffffffff021916908373ffffffffffffffffffffffffffffffffffffffff1602179055506105a58061005f6000396000f300606060405260043610610057576000357c0100000000000000000000000000000000000000000000000000000000900463ffffffff1680638ca3c5531461005c578063ae55c888146100fc578063f2fde38b146101d2575b600080fd5b341561006757600080fd5b6100fa600480803590602001908201803590602001908080601f0160208091040260200160405190810160405280939291908181526020018383808284378201915050505050509190803590602001908201803590602001908080601f0160208091040260200160405190810160405280939291908181526020018383808284378201915050505050509190505061020b565b005b341561010757600080fd5b610157600480803590602001908201803590602001908080601f016020809104026020016040519081016040528093929190818152602001838380828437820191505050505050919050506102fc565b6040518080602001828103825283818151815260200191508051906020019080838360005b8381101561019757808201518184015260208101905061017c565b50505050905090810190601f1680156101c45780820380516001836020036101000a031916815260200191505b509250505060405180910390f35b34156101dd57600080fd5b610209600480803573ffffffffffffffffffffffffffffffffffffffff16906020019091905050610420565b005b600160009054906101000a900473ffffffffffffffffffffffffffffffffffffffff1673ffffffffffffffffffffffffffffffffffffffff163373ffffffffffffffffffffffffffffffffffffffff1614151561026757600080fd5b80600080846040518082805190602001908083835b6020831015156102a1578051825260208201915060208101905060208303925061027c565b6001836020036101000a03801982511681845116808217855250505050505090500191505060405180910390206000191660001916815260200190815260200160002090805190602001906102f79291906104c0565b505050565b610304610540565b600080836040518082805190602001908083835b60208310151561033d5780518252602082019150602081019050602083039250610318565b6001836020036101000a0380198251168184511680821785525050505050509050019150506040518091039020600019166000191681526020019081526020016000208054600181600116156101000203166002900480601f0160208091040260200160405190810160405280929190818152602001828054600181600116156101000203166002900480156104145780601f106103e957610100808354040283529160200191610414565b820191906000526020600020905b8154815290600101906020018083116103f757829003601f168201915b50505050509050919050565b600160009054906101000a900473ffffffffffffffffffffffffffffffffffffffff1673ffffffffffffffffffffffffffffffffffffffff163373ffffffffffffffffffffffffffffffffffffffff1614151561047c57600080fd5b80600160006101000a81548173ffffffffffffffffffffffffffffffffffffffff021916908373ffffffffffffffffffffffffffffffffffffffff16021790555050565b828054600181600116156101000203166002900490600052602060002090601f016020900481019282601f1061050157805160ff191683800117855561052f565b8280016001018555821561052f579182015b8281111561052e578251825591602001919060010190610513565b5b50905061053c9190610554565b5090565b602060405190810160405280600081525090565b61057691905b8082111561057257600081600090555060010161055a565b5090565b905600a165627a7a723058204e6e5873225a323103c7ecfab2c0bcf0ce98e20a16f0b8a63d5ae2f5e0e534420029",
  "source": "pragma solidity ^0.4.18;\r\n\r\ncontract BusinessCard {\r\n\r\n    mapping (bytes32 => string) data;\r\n\r\n    address owner;\r\n\r\n    function BusinessCard() public {\r\n        owner = msg.sender;\r\n    }\r\n\r\n    modifier onlyOwner() {\r\n        require(msg.sender == owner);\r\n        _;\r\n    }\r\n\r\n    function setData(string key, string value) public onlyOwner {\r\n        data[keccak256(key)] = value;\r\n    }\r\n\r\n    function transferOwnership(address newOwner) public onlyOwner {\r\n\t    owner = newOwner;\r\n    }\r\n\r\n    function getData(string key) public constant returns(string) {\r\n        return data[keccak256(key)];\r\n    }\r\n\r\n}\r\n",
  "sourcePath": "D:\\depelop\\javaScript\\hackaton\\src\\truffle\\contracts\\TestContract.sol",
  "compiler": {
    "name": "solc",
    "version": "0.4.18+commit.9cf6e910.Emscripten.clang"
  },
  "schemaVersion": "1.0.1",
  "updatedAt": "2017-12-06T20:57:25.435Z"
}